:100000000C94BD000C94E5000C94E5000C94E50004
:100010000C94E5000C94E5000C94E5000C94E500CC
:100020000C94E5000C94E5000C94E5000C94E500BC
:100030000C94E5000C94E5000C94E5000C94E500AC
:100040000C94E6030C94E5000C94FF040C94E5007A
:100050000C94E5000C94E5000C94E5000C94E5008C
:100060000C94E5000C94E50074037A037A037A0398
:100070007A037A037A037A037A037A037A037A0398
:100080007A037A037A037A030703B801C201E20113
:10009000E2012E02380258028E02BB027A037A0372
:1000A0007A037A037A037A037A037A037A037A0368
:1000B0007A037A037A037A037A037A037A037A0358
:1000C0007A037A037A037A037A037A037A037A0348
:1000D0007A037A037A037A037A037A037A037A0338
:1000E0007A037A037A037A037A0324026E02FA000F
:1000F000040130013A01E7024E021A01D8018401DD
:100100005A014903FD02330364016E015001840268
:100110005F030E02F801AE018E019801A4020000F7
:100120000000240027002A0000000000250028000D
:100130002B00000000002300260029000404040412
:100140000404040402020202020203030303030381
:10015000010204081020408001020408102001025E
:10016000040810200000000700020100000304063C
:100170000000000000000000840611241FBECFEF25
:10018000D8E0DEBFCDBF11E0A0E0B1E0EEE4FFE0DB
:1001900002C005900D92A831B107D9F712E0A8E18D
:1001A000B1E001C01D92AC33B107E1F711E0CAE73D
:1001B000D1E004C02297FE010E94A107C837D107F1
:1001C000C9F70E94DF030C94A5070C94000099273F
:1001D00087FD9095A92FB92FFC01B097EB35F1055C
:1001E00008F088C2EC5CFF4FEE0FFF1F0590F49102
:1001F000E02D099480910B0161E00E94B20468E552
:1002000072E080E090E03FC080910B0161E00E94CD
:10021000B20468E572E080E090E00E942E048091D4
:100220000B0160E00E94B20468EC70E080E090E0B6
:100230000E942E0480910B0161E00E94B20468ECE0
:1002400070E080E090E00E942E0480910B0160E05D
:100250000E94B20468EC70E080E090E00E942E04FE
:1002600080910B0161E00E94B20468EC70E080E0D4
:1002700090E02EC280910B0161E00E94B20468EC14
:1002800070E080E090E00E942E0480910B0160E01D
:100290000E94B20468EC70E080E090E00E942E04BE
:1002A00080910B0161E00E94B20468EC70E080E094
:1002B00090E096C180910B0161E00E94B20468EC6D
:1002C00070E080E090E049C180910B0161E00E9404
:1002D000B20468EC70E080E090E06CC180910B01AA
:1002E00061E00E94B20468E572E080E090E00E9464
:1002F0002E0480910B0160E00E94B20468EC70E073
:1003000080E090E00E942E0480910B0161E00E9449
:10031000B20468E572E080E090E089C080910B0152
:1003200061E00E94B20468E572E080E090E069C09C
:1003300080910B0161E00E94B20468E572E080E008
:1003400090E00E942E0480910B0160E00E94B204B4
:1003500068EC70E080E090E00E942E0480910B0138
:1003600061E00E94B20468EC70E080E090E084C13B
:1003700080910B0161E00E94B20468EC70E080E0C3
:1003800090E04EC180910B0161E00E94B20468ECE4
:1003900070E080E090E00E942E0480910B0160E00C
:1003A0000E94B20468EC70E080E090E00E942E04AD
:1003B00080910B0161E00E94B20468EC70E080E083
:1003C00090E044C180910B0161E00E94B20468ECAE
:1003D00070E080E090E00E942E0480910B0160E0CC
:1003E0000E94B20468EC70E080E090E00E942E046D
:1003F00080910B0161E00E94B20468EC70E080E043
:1004000090E00E942E0480910B0160E00E94B204F3
:1004100068EC70E080E090E00E942E0480910B0177
:1004200061E00E94B20468EC70E080E090E00E941D
:100430002E0480910B0160E00E94B20468EC70E031
:1004400080E090E00E942E0480910B0161E00E9408
:10045000B20468EC70E080E090E024C180910B0170
:1004600061E00E94B20468EC70E080E090E009C0B6
:1004700080910B0161E00E94B20468E572E080E0C7
:1004800090E00E942E0480910B0160E00E94B20473
:1004900068EC70E080E090E00E942E0480910B01F7
:1004A00061E00E94B20468EC70E080E090E01FC060
:1004B00080910B0161E00E94B20468E572E080E087
:1004C00090E00E942E0480910B0160E00E94B20433
:1004D00068EC70E080E090E00E942E0480910B01B7
:1004E00061E00E94B20468E572E080E090E00E9462
:1004F0002E0480910B0160E00E94B20468EC70E071
:1005000080E090E00E942E0480910B0161E00E9447
:10051000B20468EC70E080E090E07FCE80910B0147
:1005200061E00E94B20468E572E080E090E00E9421
:100530002E0480910B0160E00E94B20468EC70E030
:1005400080E090E00E942E0480910B0161E00E9407
:10055000B20468E572E080E090E00E942E04809191
:100560000B0160E00E94B20468EC70E080E090E073
:100570000E942E0449CE80910B0161E00E94B204DA
:1005800068E572E080E090E00E942E0480910B010B
:1005900060E00E94B20468EC70E080E090E00E94AD
:1005A0002E0480910B0161E00E94B20468E572E0C4
:1005B00080E090E00E942E0480910B0160E00E9498
:1005C000B20468EC70E080E090E00E942E0480911C
:1005D0000B0161E00E94B20468E572E080E090E007
:1005E0000E942E0480910B0160E00E94B20468EC2E
:1005F00070E080E090E00E942E0480910B0161E0A9
:100600000E94B20468E572E080E090E01CCE809128
:100610000B0161E00E94B20468E572E080E090E0C6
:100620000E942E0480910B0160E00E94B20468ECED
:1006300070E080E090E00E942E0480910B0161E068
:100640000E94B20468E572E080E090E00E942E040F
:1006500080910B0160E00E94B20468EC70E080E0E1
:1006600090E00E942E0480910B0161E00E94B20490
:1006700068E572E080E090E00E942E0480910B011A
:1006800060E00E94B20468EC70E080E090E00E94BC
:100690002E0480910B0161E00E94B20468E572E0D3
:1006A00080E090E00E942E0480910B0160E00E94A7
:1006B000B20468EC70E080E090E00E942E0480912B
:1006C0000B0161E00E94B20468E572E080E090E016
:1006D0000E942E0480910B0160E00E94B20468EC3D
:1006E00070E080E090E004C068EE73E080E090E0AD
:1006F0000E942E0468EC70E080E090E00E942E04DE
:100700000895CF93DF93C0E0D0E007C0FE01E65E1E
:10071000FE4F80810E94E700219680919A0190917E
:100720009B01C817D90794F310929B0110929A016C
:10073000DF91CF91089589E292E00E9435068823E7
:1007400079F189E292E060E071E00E94FD061CC050
:1007500089E292E00E944906682F809318019093E5
:10076000190189E292E00E94F50680919A01909128
:100770009B01FC01E65EFE4F20911801208301964B
:1007800090939B0180939A0189E292E00E94350642
:100790008823F1F689E292E00E9405070E94810316
:1007A000089580910B0161E00E94920489E292E039
:1007B00040E855E260E070E00E943C0508950E9428
:1007C00058040E94D1030E949B03FDCF1F920F92F9
:1007D0000FB60F9211242F933F938F939F93AF9354
:1007E000BF938091A0019091A101A091A201B0912D
:1007F000A3013091A4010196A11DB11D232F2D5FEE
:100800002D3720F02D570196A11DB11D2093A40175
:100810008093A0019093A101A093A201B093A301A2
:1008200080919C0190919D01A0919E01B0919F01AA
:100830000196A11DB11D80939C0190939D01A093F1
:100840009E01B0939F01BF91AF919F918F913F9176
:100850002F910F900FBE0F901F901895EF92FF925F
:100860000F931F937B018C018FB7F8944091A001E7
:100870005091A1016091A2017091A3018FBF2FB788
:10088000F8948091A0019091A101A091A201B09152
:10089000A3012FBF841B950BA60BB70BE816F90617
:1008A0000A071B0760F71F910F91FF90EF900895C3
:1008B000789484B5826084BD84B5816084BD85B53B
:1008C000826085BD85B5816085BDEEE6F0E0808102
:1008D00081608083E1E8F0E08081826080838081B4
:1008E00081608083E0E8F0E0808181608083E1EBDB
:1008F000F0E0808184608083E0EBF0E080818160C3
:100900008083EAE7F0E08081846080838081826078
:100910008083808181608083808180688083109261
:10092000C1000895282F30E0C901805B9E4FFC0173
:100930009491245C3E4FF9018491882391F0E82F33
:10094000F0E0EE0FFF1FE25EFE4FA591B49166232B
:1009500029F48C91909589238C9308958C91892BFF
:100960008C930895482F50E0CA018C599E4FFC018A
:100970002491CA01805B9E4FFC019491445C5E4FC0
:10098000FA0134913323D1F1222331F1233021F4C0
:10099000809180008F7705C0243031F480918000F1
:1009A0008F7D8093800018C0213019F484B58F7733
:1009B00004C0223021F484B58F7D84BD0DC0263063
:1009C00021F48091B0008F7705C0273029F4809101
:1009D000B0008F7D8093B000E32FF0E0EE0FFF1F9B
:1009E000E85DFE4FA591B491662329F48C91909512
:1009F00089238C9308958C91892B8C9308951F9251
:100A00000F920FB60F9211242F933F934F935F9342
:100A10006F937F938F939F93AF93BF93EF93FF93C6
:100A20004091C600E0912502F0912602CF01019687
:100A300060E870E00E943B079C0180912702909142
:100A400028022817390739F0EB55FE4F40833093C1
:100A5000260220932502FF91EF91BF91AF919F91C4
:100A60008F917F916F915F914F913F912F910F9057
:100A70000FBE0F901F9018955F926F927F928F928A
:100A80009F92AF92BF92CF92DF92EF92FF920F931D
:100A90001F93CF93DF93EC013A014B01413482E481
:100AA00058078FE0680780E078070CF07FC060E8A7
:100AB00074E88EE190E0A40193010E947007215038
:100AC000304040405040CA01B90122E030E040E0EF
:100AD00050E00E94700759016A01A6019501209516
:100AE00030954095509594E0220F331F441F551FB9
:100AF0009A95D1F760E074E284EF90E00E9470076D
:100B0000CA01B9012FEF30E040E050E00E941C071D
:100B1000A40193010E947007C90181509F4F1816CC
:100B200019061CF4522E5A9403C055245394521A99
:100B300060E079E08DE390E0A40193010E947007EA
:100B40002150304040405040CA01B90122E030E01D
:100B500040E050E00E9470072095309540955095F8
:100B600083E0220F331F441F551F8A95D1F760E0A1
:100B700074E284EF90E00E947007CA01B9012FEF80
:100B800030E040E050E00E941C07A40193010E9465
:100B90007007C90181509F4F181619061CF4822F47
:100BA000815002C081E0821B851500F5E885F9853A
:100BB00081E090E00A8802C0880F991F0A94E2F74A
:100BC000808360E079E08DE390E0A40193010E94CE
:100BD00070072150304040405040CA01B90122E026
:100BE00030E040E050E00E94700704C0E885F985DD
:100BF00010829501EC81FD813083EE81FF8120839D
:100C0000EA85FB85208141E050E0CA010E8402C0E4
:100C1000880F991F0A94E2F7282B2083EA85FB8529
:100C20002081CA010F8402C0880F991F0A94E2F73D
:100C3000282B2083EA85FB858081088802C0440F29
:100C4000551F0A94E2F7842B8083DF91CF911F9187
:100C50000F91FF90EF90DF90CF90BF90AF909F905B
:100C60008F907F906F905F900895DC011296ED91C8
:100C7000FC911397E058FF4F8191919180589F4FBD
:100C800020813181821B930B60E870E00E943B075A
:100C90000895CF93DF93DC011296ED91FC911397A9
:100CA000EF01CE57DF4F48815981E058FF4F8081D7
:100CB0009181E058F0408417950719F42FEF3FEF2A
:100CC0000CC0E40FF51F2081CA01019660E870E0B6
:100CD0000E943B079983888330E0C901DF91CF915F
:100CE0000895FC01A085B18521898C9190E0022EA8
:100CF00002C0959587950A94E2F780FFF6CF0484A9
:100D0000F585E02D6083089581E191E090932A02BA
:100D10008093290285EA91E090932C0280932B0224
:100D200085EC90E090932E0280932D0284EC90E06D
:100D30009093300280932F0280EC90E090933202E7
:100D40008093310281EC90E09093340280933302DF
:100D500086EC90E0909336028093350284E0809395
:100D6000370283E08093380287E08093390285E080
:100D700080933A0281E080933B0208950F931F9382
:100D8000CF93DF938C01EB0109C02196D801ED913F
:100D9000FC910190F081E02DC801099568816623DE
:100DA000A1F7DF91CF911F910F910895EF92FF92DC
:100DB0000F931F93CF93DF938C017B01EA010CC04B
:100DC000D7016D917D01D801ED91FC910190F081E9
:100DD000E02DC80109952197209791F7DF91CF91D8
:100DE0001F910F91FF90EF900895DC01ED91FC9120
:100DF0000190F081E02D09950895DC01ED91FC91C1
:100E00000280F381E02D099508950F931F938C01C3
:100E1000DC01ED91FC910190F081E02D6DE00995F0
:100E2000D801ED91FC910190F081E02DC8016AE0BC
:100E300009951F910F910895629FD001739FF00152
:100E4000829FE00DF11D649FE00DF11D929FF00D5A
:100E5000839FF00D749FF00D659FF00D9927729F91
:100E6000B00DE11DF91F639FB00DE11DF91FBD011C
:100E7000CF011124089597FB092E07260AD077FD8C
:100E800004D049D006D000201AF4709561957F4FA8
:100E90000895F6F7909581959F4F0895A1E21A2E37
:100EA000AA1BBB1BFD010DC0AA1FBB1FEE1FFF1F0E
:100EB000A217B307E407F50720F0A21BB30BE40B5E
:100EC000F50B661F771F881F991F1A9469F76095A5
:100ED0007095809590959B01AC01BD01CF0108955F
:100EE00097FB092E05260ED057FD04D0D7DF0AD078
:100EF000001C38F450954095309521953F4F4F4F49
:100F00005F4F0895F6F790958095709561957F4FA6
:100F10008F4F9F4F0895AA1BBB1B51E107C0AA1F0B
:100F2000BB1FA617B70710F0A61BB70B881F991F8A
:100F30005A95A9F780959095BC01CD010895EE0FC3
:0E0F4000FF1F0590F491E02D0994F894FFCF67
:100F4E0052656369657665643A20000D0000000005
:080F5E00007106BE06D6060074
:00000001FF
