:100000000C94BD000C94E5000C94E5000C94E50004
:100010000C94E5000C94E5000C94E5000C94E500CC
:100020000C94E5000C94E5000C94E5000C94E500BC
:100030000C94E5000C94E5000C94E5000C94E500AC
:100040000C946B020C94E5000C94A0030C94E50056
:100050000C94E5000C94E5000C94E5000C94E5008C
:100060000C94E5000C94E500C401EC01FA01FA01DE
:10007000FA01FA01FA01FA01FA01FA01FA01FA01A8
:10008000D601FA01CB01FA01BF0198019B019E0143
:10009000A101A801AB01AE01B301B601FA01FA0159
:1000A000FA01FA01FA01DF01FA01FA01FA01FA0193
:1000B000FA01FA01FA01FA01FA01FA01FA01FA0168
:1000C000FA01FA01FA01FA01FA01FA01FA01FA0158
:1000D000FA01FA01FA01FA01FA01FA01FA01FA0148
:1000E000FA01FA01FA01FA01FA01D301B0017C0127
:1000F000E501E9017F01BA018401E701F201D101C3
:100100008901F601BC01F4018C018F018101860196
:10011000F801A501A301DC0192019501E3010000B2
:100120000000240027002A0000000000250028000D
:100130002B00000000002300260029000404040412
:100140000404040402020202020203030303030381
:10015000010204081020408001020408102001025E
:10016000040810200000000700020100000304063C
:100170000000000000000000250511241FBECFEF85
:10018000D8E0DEBFCDBF11E0A0E0B1E0E0E9FCE0E7
:1001900002C005900D92AC31B107D9F712E0ACE185
:1001A000B1E001C01D92A234B107E1F711E0CAE746
:1001B000D1E004C02297FE010E944206C837D10751
:1001C000C9F70E9464020C9446060C9400008091CA
:1001D0000B0161E00E9453030E94B3027093A101DE
:1001E0006093A00116C080910D0161E00E9453034D
:1001F00080910F01909110010E94EB0280910D01FE
:1002000060E00E94530380910F01909110010E94C1
:10021000EB020E94B3022091A0013091A10144277A
:1002200037FD4095542F621B730B840B950B68555B
:10023000724080409040B8F280910B0160E00E94D3
:10024000530368EC70E080E090E00E94C1020895E2
:1002500080910B0161E00E9453030E94B3027093EE
:10026000A1016093A00116C080910D0161E00E9480
:10027000530380910F01909110010E94EB02809135
:100280000D0160E00E94530380910F0190911001D5
:100290000E94EB020E94B3022091A0013091A101C3
:1002A000442737FD4095542F621B730B840B950B2D
:1002B000683C710581059105B8F280910B0160E001
:1002C0000E94530368EC70E080E090E00E94C1025D
:1002D0000895992787FD9095A92FB92FFC01B09714
:1002E000EB35F10508F086C0EC5CFF4FEE0FFF1F09
:1002F0000590F491E02D09940E94E70002C00E944D
:1003000028010E94280138C00E9428010E9428016B
:100310005EC00E94280159C00E9428012BC00E9483
:10032000E7003FC00E94E70010C00E94E70044C001
:100330000E94280126C00E94280154C00E94280162
:1003400039C00E9428010E9428010E9428012BC068
:100350000E942801D9CF0E94E700D6CF0E94E70073
:100360000E94E700D3CF0E94E7002DC00E94E70063
:100370000E94E7000E94E7000E94E7002AC00E9456
:10038000E7000E94E70030C068EE73E080E090E094
:100390000E94C1022FC00E9428010E94E7000E9413
:1003A00028010E94E7000E94280122C00E94E70065
:1003B0000E94E7000E9428010E94280117C00E94A5
:1003C00028010E9428010E94E7000E94E7000E9485
:1003D00028010E9428010EC00E94E7000E94280107
:1003E0000E94E7000E9428010E94E7000E94E700A7
:1003F0000E94E70068EC70E080E090E00E94C1029B
:100400000895CF93DF93C0E0D0E007C0FE01E25E25
:10041000FE4F80810E946901219680919E019091FA
:100420009F01C817D90794F310929F0110929E0163
:10043000DF91CF9108958FE292E00E94D604882345
:1004400079F18FE292E060E071E00E949E051CC0AD
:100450008FE292E00E94EA04682F80931C0190933F
:100460001D018FE292E00E94960580919E0190917D
:100470009F01FC01E25EFE4F20911C01208301964A
:1004800090939F0180939E018FE292E00E94D60498
:100490008823F1F68FE292E00E94A6050E940102F5
:1004A000089580910B0161E00E94330380910D015A
:1004B00061E00E9433038FE292E040E855E260E0A1
:1004C00070E00E94DD0308950E94F9020E9451022B
:1004D0000E941B02FDCF1F920F920FB60F921124A4
:1004E0002F933F938F939F93AF93BF938091A601D8
:1004F0009091A701A091A801B091A9013091AA0102
:100500000196A11DB11D232F2D5F2D3720F02D57F2
:100510000196A11DB11D2093AA018093A60190937D
:10052000A701A093A801B093A9018091A201909185
:10053000A301A091A401B091A5010196A11DB11D37
:100540008093A2019093A301A093A401B093A5016D
:10055000BF91AF919F918F913F912F910F900FBEBF
:100560000F901F9018958FB7F8942091A6013091A5
:10057000A7014091A8015091A9018FBFB901CA01FB
:100580000895EF92FF920F931F937B018C018FB719
:10059000F8944091A6015091A7016091A801709133
:1005A000A9018FBF2FB7F8948091A6019091A70160
:1005B000A091A801B091A9012FBF841B950BA60B98
:1005C000B70BE816F9060A071B0760F71F910F9192
:1005D000FF90EF900895019759F0FC01EE0FFF1F77
:1005E000EE0FFF1F32978FB7F8943197F1F78FBF57
:1005F0000895789484B5826084BD84B5816084BD9B
:1006000085B5826085BD85B5816085BDEEE6F0E08B
:10061000808181608083E1E8F0E080818260808376
:10062000808181608083E0E8F0E080818160808368
:10063000E1EBF0E0808184608083E0EBF0E080819A
:1006400081608083EAE7F0E080818460808380813C
:1006500082608083808181608083808180688083E4
:100660001092C1000895282F30E0C901805B9E4F91
:10067000FC019491245C3E4FF9018491882391F010
:10068000E82FF0E0EE0FFF1FE25EFE4FA591B49160
:10069000662329F48C91909589238C9308958C91ED
:1006A000892B8C930895482F50E0CA018C599E4F96
:1006B000FC012491CA01805B9E4FFC019491445C33
:1006C0005E4FFA0134913323D1F1222331F12330EB
:1006D00021F4809180008F7705C0243031F480911F
:1006E00080008F7D8093800018C0213019F484B57C
:1006F0008F7704C0223021F484B58F7D84BD0DC076
:10070000263021F48091B0008F7705C0273029F47E
:100710008091B0008F7D8093B000E32FF0E0EE0F6A
:10072000FF1FE85DFE4FA591B491662329F48C91DB
:10073000909589238C9308958C91892B8C9308959F
:100740001F920F920FB60F9211242F933F934F9346
:100750005F936F937F938F939F93AF93BF93EF9329
:10076000FF934091C600E0912B02F0912C02CF0143
:10077000019660E870E00E94DC059C0180912D02EA
:1007800090912E022817390739F0E555FE4F408326
:1007900030932C0220932B02FF91EF91BF91AF91E8
:1007A0009F918F917F916F915F914F913F912F9189
:1007B0000F900FBE0F901F9018955F926F927F92CF
:1007C0008F929F92AF92BF92CF92DF92EF92FF9261
:1007D0000F931F93CF93DF93EC013A014B01413408
:1007E00082E458078FE0680780E078070CF07FC04C
:1007F00060E874E88EE190E0A40193010E94110684
:100800002150304040405040CA01B90122E030E060
:1008100040E050E00E94110659016A01A6019501CD
:10082000209530954095509594E0220F331F441F3A
:10083000551F9A95D1F760E074E284EF90E00E9432
:100840001106CA01B9012FEF30E040E050E00E94EC
:10085000BD05A40193010E941106C90181509F4F5B
:10086000181619061CF4522E5A9403C0552453949A
:10087000521A60E079E08DE390E0A40193010E94B8
:1008800011062150304040405040CA01B90122E0D9
:1008900030E040E050E00E941106209530954095F0
:1008A000509583E0220F331F441F551F8A95D1F7BF
:1008B00060E074E284EF90E00E941106CA01B90181
:1008C0002FEF30E040E050E00E94BD05A40193010D
:1008D0000E941106C90181509F4F181619061CF479
:1008E000822F815002C081E0821B851500F5E885CA
:1008F000F98581E090E00A8802C0880F991F0A9468
:10090000E2F7808360E079E08DE390E0A401930159
:100910000E9411062150304040405040CA01B901A8
:1009200022E030E040E050E00E94110604C0E8857B
:10093000F98510829501EC81FD813083EE81FF8184
:100940002083EA85FB85208141E050E0CA010E84C6
:1009500002C0880F991F0A94E2F7282B2083EA85AA
:10096000FB852081CA010F8402C0880F991F0A9459
:10097000E2F7282B2083EA85FB858081088802C066
:10098000440F551F0A94E2F7842B8083DF91CF91A7
:100990001F910F91FF90EF90DF90CF90BF90AF909D
:1009A0009F908F907F906F905F900895DC011296DA
:1009B000ED91FC911397E058FF4F819191918058F0
:1009C0009F4F20813181821B930B60E870E00E9471
:1009D000DC050895CF93DF93DC011296ED91FC9135
:1009E0001397EF01CE57DF4F48815981E058FF4FF1
:1009F00080819181E058F0408417950719F42FEF1A
:100A00003FEF0CC0E40FF51F2081CA01019660E89A
:100A100070E00E94DC059983888330E0C901DF9192
:100A2000CF910895FC01A085B18521898C9190E03A
:100A3000022E02C0959587950A94E2F780FFF6CFC3
:100A40000484F585E02D6083089585E191E090931D
:100A5000300280932F028BEA91E0909332028093D0
:100A6000310285EC90E0909334028093330284EC61
:100A700090E0909336028093350280EC90E0909362
:100A800038028093370281EC90E090933A02809391
:100A9000390286EC90E090933C0280933B0284E024
:100AA00080933D0283E080933E0287E080933F0283
:100AB00085E08093400281E08093410208950F9386
:100AC0001F93CF93DF938C01EB0109C02196D801CE
:100AD000ED91FC910190F081E02DC80109956881AC
:100AE0006623A1F7DF91CF911F910F910895EF92A7
:100AF000FF920F931F93CF93DF938C017B01EA0149
:100B00000CC0D7016D917D01D801ED91FC91019050
:100B1000F081E02DC80109952197209791F7DF9189
:100B2000CF911F910F91FF90EF900895DC01ED910F
:100B3000FC910190F081E02D09950895DC01ED9183
:100B4000FC910280F381E02D099508950F931F9386
:100B50008C01DC01ED91FC910190F081E02D6DE0C4
:100B60000995D801ED91FC910190F081E02DC8012B
:100B70006AE009951F910F910895629FD001739FBC
:100B8000F001829FE00DF11D649FE00DF11D929F29
:100B9000F00D839FF00D749FF00D659FF00D992768
:100BA000729FB00DE11DF91F639FB00DE11DF91F8C
:100BB000BD01CF011124089597FB092E07260AD005
:100BC00077FD04D049D006D000201AF470956195C5
:100BD0007F4F0895F6F7909581959F4F0895A1E274
:100BE0001A2EAA1BBB1BFD010DC0AA1FBB1FEE1FA7
:100BF000FF1FA217B307E407F50720F0A21BB30BF2
:100C0000E40BF50B661F771F881F991F1A9469F76D
:100C100060957095809590959B01AC01BD01CF01C9
:100C2000089597FB092E05260ED057FD04D0D7DF77
:100C30000AD0001C38F450954095309521953F4FCF
:100C40004F4F5F4F0895F6F7909580957095619599
:100C50007F4F8F4F9F4F0895AA1BBB1B51E107C0C9
:100C6000AA1FBB1FA617B70710F0A61BB70B881F3C
:100C7000991F5A95A9F780959095BC01CD010895CB
:100C8000EE0FFF1F0590F491E02D0994F894FFCF2B
:100C900052656369657665643A20000D000900F4C9
:0C0CA000010000000012055F0577050050
:04000005008001A0D6
:00000001FF
