:100000000C9462000C948A000C948A000C948A0070
:100010000C948A000C948A000C948A000C948A0038
:100020000C948A000C948A000C948A000C948A0028
:100030000C948A000C948A000C948A000C948A0018
:100040000C9491010C948A000C9403030C948A0084
:100050000C948A000C948A000C948A000C948A00F8
:100060000C948A000C948A000000000024002700F1
:100070002A0000000000250028002B0000000000DE
:1000800023002600290004040404040404040202DA
:100090000202020203030303030301020408102007
:1000A0004080010204081020010204081020000012
:1000B0000007000201000003040600000000000029
:1000C0000000580411241FBECFEFD8E0DEBFCDBF23
:1000D00011E0A0E0B1E0E4E9FCE002C005900D927F
:1000E000A832B107D9F711E0A8E2B1E001C01D9232
:1000F000A83CB107E1F710E0C4ECD0E004C02297BF
:10010000FE010E944406C23CD107C9F70E948A0141
:100110000C9448060C940000CF93DF9320911A01B1
:1001200030911B0140911C0150911D01BA01620FD9
:10013000731F6630710550F4FB01EE0FFF1FE25F85
:10014000FE4F80819181019691838083F901EE0FAA
:10015000FF1FE25FFE4F8081918101969183808332
:10016000F901E41BF50BE630F10548F4EE0FFF1F33
:10017000E25FFE4F80819181019791838083440FDC
:10018000551FF901E41BF50BE630F10548F4EE0FBD
:10019000FF1FE25FFE4F80819181019791838083F1
:1001A000F901EE0FFF1FE25FFE4F80819181803FDA
:1001B000910509F04BC0C9010197049728F4709389
:1001C0001B0160931A013AC02530310599F484E08F
:1001D00090E090931B0180931A018FEF9FEF909313
:1001E0001D0180931C016EE571E080E090E00E94AB
:1001F000D90124C0232B11F581E090E090931B01DD
:1002000080931A0190931D0180931C016EE571E0AB
:1002100080E090E00E94D901CEE0D1E0699179912F
:1002200085EB91E00E94A70585EB91E060E071E02D
:100230000E94C90481E0CA31D80781F760911A0190
:1002400070911B0185EB91E00E94AF0560910E015A
:1002500070910F01809102010E943D026091100196
:1002600070911101809104010E943D026091120180
:1002700070911301809106010E943D02609114016A
:1002800070911501809108010E943D026091160154
:100290007091170180910A010E943D02609118013E
:1002A0007091190180910C010E943D0261E070E0A3
:1002B00080E090E00E94D90185EB91E00E94390432
:1002C000DF91CF9108958091020161E00E94960232
:1002D0008091040161E00E9496028091060161E034
:1002E0000E9496028091080161E00E94960280912E
:1002F0000A0161E00E94960280910C0161E00E9477
:10030000960285EB91E040E855E260E070E00E94E3
:10031000400308950E9403020E9463010E948C0022
:10032000FDCF1F920F920FB60F9211242F933F9380
:100330008F939F93AF93BF9380912C0190912D0148
:10034000A0912E01B0912F01309130010196A11D95
:10035000B11D232F2D5F2D3720F02D570196A11DA4
:10036000B11D2093300180932C0190932D01A09317
:100370002E01B0932F018091280190912901A09125
:100380002A01B0912B010196A11DB11D8093280176
:1003900090932901A0932A01B0932B01BF91AF91B3
:1003A0009F918F913F912F910F900FBE0F901F90B3
:1003B0001895EF92FF920F931F937B018C018FB7DB
:1003C000F89440912C0150912D0160912E01709173
:1003D0002F018FBF2FB7F89480912C0190912D01A0
:1003E000A0912E01B0912F012FBF841B950BA60B5E
:1003F000B70BE816F9060A071B0760F71F910F9164
:10040000FF90EF900895789484B5826084BD84B5A0
:10041000816084BD85B5826085BD85B5816085BDFF
:10042000EEE6F0E0808181608083E1E8F0E08081A9
:1004300082608083808181608083E0E8F0E0808159
:1004400081608083E1EBF0E0808184608083E0EB79
:10045000F0E0808181608083EAE7F0E08081846061
:1004600080838081826080838081816080838081BD
:10047000806880831092C10008951F93CF93DF930B
:10048000182FEB0161E00E949602E12FF0E0E255A7
:10049000FF4F8491833051F4809180008068809375
:1004A0008000D0938900C09388003CC0843051F410
:1004B00080918000806280938000D0938B00C093F5
:1004C0008A0030C0813039F4209729F184B58068E2
:1004D00084BDC7BD27C0823039F42097E1F084B5D0
:1004E000806284BDC8BD1EC0863041F48091B000DA
:1004F00080688093B000C093B30014C0873041F48B
:100500008091B00080628093B000C093B4000AC0B4
:10051000C038D1051CF4812F60E002C0812F61E05A
:100520000E94B602DF91CF911F910895282F30E0ED
:10053000C90186569F4FFC0194912A573F4FF901FC
:100540008491882391F0E82FF0E0EE0FFF1FE85927
:10055000FF4FA591B491662329F48C91909589233E
:100560008C9308958C91892B8C930895482F50E09B
:10057000CA0182559F4FFC012491CA0186569F4FA4
:10058000FC0194914A575F4FFA0134913323D1F122
:10059000222331F1233021F4809180008F7705C030
:1005A000243031F4809180008F7D8093800018C0CA
:1005B000213019F484B58F7704C0223021F484B53A
:1005C0008F7D84BD0DC0263021F48091B0008F77DF
:1005D00005C0273029F48091B0008F7D8093B00052
:1005E000E32FF0E0EE0FFF1FEE58FF4FA591B491FF
:1005F000662329F48C91909589238C9308958C918E
:10060000892B8C9308951F920F920FB60F9211248D
:100610002F933F934F935F936F937F938F939F930A
:10062000AF93BF93EF93FF934091C600E091B10168
:10063000F091B201CF01019660E870E00E94DE0502
:100640009C018091B3019091B4012817390739F0CA
:10065000EF5CFE4F40833093B2012093B101FF91D4
:10066000EF91BF91AF919F918F917F916F915F912A
:100670004F913F912F910F900FBE0F901F901895A3
:100680005F926F927F928F929F92AF92BF92CF9222
:10069000DF92EF92FF920F931F93CF93DF93EC01C2
:1006A0003A014B01413482E458078FE0680780E04B
:1006B00078070CF07FC060E874E88EE190E0A40158
:1006C00093010E9413062150304040405040CA011F
:1006D000B90122E030E040E050E00E9413065901E9
:1006E0006A01A6019501209530954095509594E0BA
:1006F000220F331F441F551F9A95D1F760E074E213
:1007000084EF90E00E941306CA01B9012FEF30E098
:1007100040E050E00E94BF05A40193010E9413062F
:10072000C90181509F4F181619061CF4522E5A9475
:1007300003C055245394521A60E079E08DE390E0B1
:10074000A40193010E9413062150304040405040C4
:10075000CA01B90122E030E040E050E00E941306F7
:10076000209530954095509583E0220F331F441F0C
:10077000551F8A95D1F760E074E284EF90E00E9403
:100780001306CA01B9012FEF30E040E050E00E94AB
:10079000BF05A40193010E941306C90181509F4F18
:1007A000181619061CF4822F815002C081E0821BAA
:1007B000851500F5E885F98581E090E00A8802C09A
:1007C000880F991F0A94E2F7808360E079E08DE357
:1007D00090E0A40193010E94130621503040404054
:1007E0005040CA01B90122E030E040E050E00E94F0
:1007F000130604C0E885F98510829501EC81FD811E
:100800003083EE81FF812083EA85FB85208141E0F2
:1008100050E0CA010E8402C0880F991F0A94E2F7C3
:10082000282B2083EA85FB852081CA010F8402C022
:10083000880F991F0A94E2F7282B2083EA85FB850D
:100840008081088802C0440F551F0A94E2F7842B68
:100850008083DF91CF911F910F91FF90EF90DF90F8
:10086000CF90BF90AF909F908F907F906F905F9050
:100870000895DC011296ED91FC911397EE57FF4F0E
:1008800080819181929382930895FC01A085B18526
:1008900021898C9190E0022E02C0959587950A944B
:1008A000E2F780FFF6CF0484F585E02D608308959C
:1008B00082E291E09093B6018093B50181E391E0EB
:1008C0009093B8018093B70185EC90E09093BA01C2
:1008D0008093B90184EC90E09093BC018093BB01BC
:1008E00080EC90E09093BE018093BD0181EC90E09C
:1008F0009093C0018093BF0186EC90E09093C20179
:100900008093C10184E08093C30183E08093C4019C
:1009100087E08093C50185E08093C60181E08093E4
:10092000C70108950F931F93CF93DF938C01EB01C1
:1009300009C02196D801ED91FC910190F081E02D44
:10094000C801099568816623A1F7DF91CF911F91B6
:100950000F910895EF92FF920F931F93CF93DF9320
:100960008C017B01EA010CC0D7016D917D01D8019A
:10097000ED91FC910190F081E02DC801099521973E
:10098000209791F7DF91CF911F910F91FF90EF90FA
:100990000895DC01ED91FC910280F381E02D099531
:1009A00008950F931F938C01DC01ED91FC91019050
:1009B000F081E02D6DE00995D801ED91FC91019059
:1009C000F081E02DC8016AE009951F910F9108950B
:1009D0002F923F924F925F926F927F928F929F924F
:1009E000AF92BF92CF92DF92EF92FF920F931F933D
:1009F000DF93CF93CDB7DEB7A0970FB6F894DEBFE5
:100A00000FBECDBF1C016A017B0141155105610577
:100A1000710549F4DC01ED91FC910190F081E02D2C
:100A200060E3099554C0882499245401422E55242A
:100A30006624772401E010E00C0F1D1F080D191D1E
:100A4000C701B601A30192010E94F105F80160837C
:100A50000894811C911CA11CB11CC701B601A30103
:100A600092010E94F105C901DA016C017D01C114F6
:100A7000D104E104F104F1F681E0E82EF12CEC0E52
:100A8000FD1EE80CF91C3E010894611C711CD50187
:100A9000C4010197A109B1096C01C818D90814C093
:100AA000F601EE0DFF1D60816A3010F4605D01C03B
:100AB000695CD101ED91FC910190F081E02DC101C3
:100AC00009950894E108F1086E147F0449F7A0968F
:100AD0000FB6F894DEBF0FBECDBFCF91DF911F914F
:100AE0000F91FF90EF90DF90CF90BF90AF909F90CD
:100AF0008F907F906F905F904F903F902F900895D0
:100B0000EF92FF920F931F93CF93DF93EC017A0143
:100B10008B0177FF0FC0E881F9810190F081E02D12
:100B20006DE2099510950095F094E094E11CF11C9C
:100B3000011D111DCE01B801A7012AE00E94E804A1
:100B4000DF91CF911F910F91FF90EF900895AB012E
:100B5000662757FD6095762F0E94800508950F93B4
:100B60001F938C01AB01662757FD6095762F0E947D
:100B70008005C8010E94D1041F910F910895629FC2
:100B8000D001739FF001829FE00DF11D649FE00D85
:100B9000F11D929FF00D839FF00D749FF00D659FE6
:100BA000F00D9927729FB00DE11DF91F639FB00DE5
:100BB000E11DF91FBD01CF011124089597FB092EF6
:100BC00007260AD077FD04D049D006D000201AF4B9
:100BD000709561957F4F0895F6F7909581959F4F99
:100BE0000895A1E21A2EAA1BBB1BFD010DC0AA1F6E
:100BF000BB1FEE1FFF1FA217B307E407F50720F086
:100C0000A21BB30BE40BF50B661F771F881F991F00
:100C10001A9469F760957095809590959B01AC0149
:100C2000BD01CF01089597FB092E05260ED057FD73
:100C300004D0D7DF0AD0001C38F450954095309589
:100C400021953F4F4F4F5F4F0895F6F79095809550
:100C5000709561957F4F8F4F9F4F0895AA1BBB1BC7
:100C600051E107C0AA1FBB1FA617B70710F0A61BAC
:100C7000B70B881F991F5A95A9F780959095BC01CD
:100C8000CD010895EE0FFF1F0590F491E02D09941A
:040C9000F894FFCF06
:100C9400200003000500060009000A000B00F00014
:100CA40078000000000000000000010001000000C6
:080CB400000045049204AA04AB
:00000001FF
